:100832002020456D626554726F6E696358202020D6
:1008420000466C616D65204465746563746564007F
:100852002020202020202020202020202020202096
:010862000095
:100800001208887BFF7A0879321208633090137FD0
:10081000C01208C97BFF7A0879431208631208BA2C
:1008200080EA7FC01208C97BFF7A087952120863F8
:0208300080DA6C
:100888007F381208C97F0E1208C97F061208C97F6F
:09089800011208C97F800208C9A1
:0E08C9008FB0C2A0C2A1D2A21208BAC2A2224F
:0E08D7008FB0D2A0C2A1D2A21208BAC2A22231
:100863008B088A09890AAB08AA09A90A1208A16098
:1008730013050AE50A7002050914F91208A1FF120B
:0508830008D780E2220D
:0E08BA00E4FFFE0FBF00010EBE4EF8BF20F59A
:0108C800220D
:030000000208E50E
:0C08E500787FE4F6D8FD75810A02080057
:1008A100BB010689828A83E0225002E722BBFE0255
:0908B100E32289828A83E4932288
:00000001FF
